:1070000055C000006EC000006CC000006AC00000E7
:1070100068C0000066C0000064C0000062C00000DC
:1070200060C000005EC00000FBC400005AC0000049
:1070300058C0000056C0000054C0000052C00000FC
:1070400050C0000076C000004CC000004AC00000E4
:1070500048C0000046C0000044C0000042C000001C
:1070600040C000003EC000003CC000003AC000002C
:1070700038C0000036C0000034C0000032C000003C
:1070800030C000002EC000002CC000002AC000004C
:1070900028C0000026C0000024C0000022C000005C
:1070A00020C000001EC000001CC0000011241FBE34
:1070B000CFEFDAE0DEBFCDBF11E0A0E0B1E0E8E164
:1070C000FFE702C005900D92AA3AB107D9F711E087
:1070D000AAEAB1E001C01D92A03CB107E1F778D364
:1070E00019C78ECFF89410926F0010928100109201
:1070F00085001092840081E085BF15BE729A0C94C1
:10710000000008952091B4013091B5012F5F3F4FE9
:107110003093B5012093B401932F37FF03C08EEF56
:10712000831B982F990F921710F4729A08957298F2
:1071300008951F920F920FB60F9211242F938F93E1
:107140009F93EF93FF93109285001092840080919B
:10715000AA019091AB01009729F001979093AB01A0
:107160008093AA018091AC019091AD01009729F024
:1071700001979093AD018093AC01E0E0F0E0859140
:1071800094918F5F9F4F49F08091AE019091AF0134
:1071900001969093AF018093AE01FF91EF919F9183
:1071A0008F912F910F900FBE0F901F90189584E034
:1071B0008093E9000DC08091E8008B778093E80010
:1071C00003C08EB3882351F08091E80082FFF9CF8D
:1071D0008091E80085FFEFCF8091F1000895982F0E
:1071E00083E08093E9008091E80085FD0DC08091E7
:1071F000E8008E778093E80003C08EB3882361F0A7
:107200008091E80080FFF9CF9093F10084E690E050
:107210009093AB018093AA0108954F925F926F9271
:107220007F928F929F92AF92BF92CF92DF92EF9216
:10723000FF920F931F93CF93DF9384E08093E90035
:107240008091E80082FF4DC284E690E09093AD010A
:107250008093AC01ACDF182F8534A1F48091090133
:1072600090910A01845F91409093AF018093AE01A9
:1072700007B600FCFDCFF999FECF81E1809357005E
:10728000E89503C0843519F492DF8DE000C28C3498
:10729000E1F38035D1F3843721F484E4A0DF80E08A
:1072A000F6C1813611F489E5F2C18134F1F47FDF52
:1072B000182F7DDF90E0880F991FAA2797FDA095D2
:1072C000BA2F312F330F20E0442737FD4095542F3C
:1072D000822B932BA42BB52B8093B0019093B101FB
:1072E000A093B201B093B301D0CF803711F483E5FE
:1072F000CEC1833549F4C0E0D1E0899170DF21E04F
:10730000C730D207D1F7C4C1863521F481E367DFE6
:1073100080E3BDC1833731F487E861DF85E95FDF52
:107320008EE1B5C18536B9F4E0E0F0E093E085E0A8
:1073300090935700E89507B600FCFDCF8093570067
:10734000E89507B600FCFDCFE058FF4FA0E7E0301E
:10735000FA0771F79ACF823739F489E0E1E0F0E07B
:1073600080935700849193C1863439F489E0E0E03A
:10737000F0E08093570084918AC18E3439F489E01B
:10738000E3E0F0E080935700849181C1813539F4C6
:1073900089E0E2E0F0E080935700849178C1823682
:1073A00031F489E51CDF80E01ADF80E870C18234A7
:1073B00019F0873609F0D3C01092AF011092AE01D8
:1073C000F6DE082FF4DEF82EF2DE682E85548230C9
:1073D00008F05CC1902F80E08F2C9924882A992A8C
:1073E00010926F00A090B001B090B101C090B201B6
:1073F000D090B301173609F044C081E18093570063
:10740000E89586017501DD24CC24C3942EC0B6E432
:107410006B1699F4ED2DF0E0EE29FF29E4918E2F03
:10742000DEDEDD2041F082E090E0A0E0B0E0E80E9A
:10743000F91E0A1F1B1FDC2415C0F999FECFD801C5
:10744000C701B695A7959795879592BD81BDF89A86
:1074500080B5C5DE82E090E0A0E0B0E0E80EF91E65
:107460000A1F1B1F0894810891088114910479F662
:10747000E092B001F092B1010093B2011093B30118
:107480006AC096E4691609F047C083E0F50180936D
:107490005700E89507B600FCFDCF3EC0F6E46F1636
:1074A000E1F47720B1F083DED82FC0E0852D90E0A5
:1074B0008C2B9D2BF7010C0140925700E89511246D
:1074C00082E090E0A0E0B0E0E80EF91E0A1F1B1F6A
:1074D00002C06DDE582E74241BC069DE282FF99976
:1074E000FECF1FBAD801C701B695A7959795879586
:1074F00092BD81BD20BD0FB6F894FA9AF99A0FBEDD
:1075000082E090E0A0E0B0E0E80EF91E0A1F1B1F29
:1075100008948108910806C08601750155247724D6
:10752000442443948114910409F0B8CFE092B0014F
:10753000F092B1010093B2011093B30196E4691681
:1075400041F485E0F50180935700E89507B600FC0B
:10755000FDCF8DE044DE82E080936F0099C08334DC
:1075600071F40091B0011091B10121DE90E021E0B1
:10757000F8010C0120935700E895112486CE83363C
:1075800099F4E090B001F090B1010091B201109136
:10759000B3010DDEF701E16090E021E00C012093E2
:1075A0005700E895112437C08D3661F4E091B001A1
:1075B000F091B10185E080935700E89507B600FC93
:1075C000FDCF63CE823551F4E091B001F091B1016D
:1075D00005911491812F03DE802F59C0843461F509
:1075E000E090B001F090B1010091B2011091B301AF
:1075F000DEDD282FF999FECF1FBAD801C701B69555
:10760000A7959795879592BD81BD20BD0FB6F8943B
:10761000FA9AF99A0FBE82E090E0A0E0B0E0E80E9E
:10762000F91E0A1F1B1FE092B001F092B1010093F6
:10763000B2011093B30129CE843631F5E090B00148
:10764000F090B1010091B2011091B301F999FECF10
:10765000D801C701B695A7959795879592BD81BD2D
:10766000F89A80B5BCDD82E090E0A0E0B0E0E80EE2
:10767000F91E0A1F1B1FE092B001F092B1010093A6
:10768000B2011093B30104C08B3111F08FE3A7DD79
:1076900083E08093E9009091E8008091E8008E7784
:1076A0008093E80095FF04C010C08EB38823C9F012
:1076B0008091E80080FFF9CF8091E8008E77809379
:1076C000E80003C08EB3882361F08091E80080FF5A
:1076D000F9CF84E08093E9008091E8008B77809374
:1076E000E800DF91CF911F910F91FF90EF90DF9015
:1076F000CF90BF90AF909F908F907F906F905F9052
:107700004F9008959091B801892F8F77813249F574
:107710008091B9018032A1F0813219F5913A09F5D1
:107720008091E800877F8093E8008FE091E067E038
:1077300070E027D28091E8008B778093E80008956D
:10774000913279F48091E800877F8093E8008FE0A0
:1077500091E067E070E079D28091E8008E778093C5
:10776000E800089582E061EC42E0D1D083E061E876
:1077700042E1CDD084E060E842E1C9C084B7877FB0
:1077800084BF88E10FB6F894809360001092600087
:107790000FBE20E880E090E00FB6F89420936100DF
:1077A000809361000FBE81E085BF92E095BF6A9A29
:1077B000E1E6F0E020831082729A109289008AEF4D
:1077C0008093880090936F0083E08093810010C1C4
:1077D0004091000850910108109201081092000891
:1077E00024B714BE88E10FB6F8948093600010921D
:1077F00060000FBE84EF91E090930A01809309012D
:10780000822F90E0FC01E270F07021FD20C0213059
:1078100019F4859194910BC02830C9F480910B0123
:1078200090910C014817590739F0859194918F5F19
:107830009F4F69F057DC0BC0859194918F5F9F4FEC
:1078400031F080EE9EE290930A0180930901729AD2
:107850006A98629909C0629BFECF729880E395E7AF
:1078600090930A018093090189DF78941092AF0107
:107870001092AE0110C0D1DC3BD32091AE0130910B
:10788000AF018091090190910A018217930710F4CA
:107890001092160137DC80911601882361F78091E0
:1078A000E00081608093E0006A981CDC80E090E05A
:1078B0000895FA01923049F0933061F09130F9F473
:1078C00087E191E022E130E01EC089E291E02EE301
:1078D00030E019C0882329F487E691E024E030E005
:1078E00012C0813029F48BE691E022E230E00BC037
:1078F000823029F48FE891E028E130E004C080E094
:1079000090E020E030E091838083C9010895809366
:10791000E9008091EB0081608093EB001092ED0014
:107920006093EC004093ED008091EE00881F882763
:10793000881F08958091B80188238CF403C08EB30A
:107940008823B1F08091E80082FFF9CF8091E800B0
:107950008B778093E80008958EB3882349F0809157
:10796000E80080FFF9CF8091E8008E778093E800EF
:107970000895EF92FF920F931F9345D04CD008EDDE
:1079800010E0F80180818F77808380818068808318
:1079900080818F7D808319BC1EBA1092B60180EE63
:1079A000E82EF12CF70180818B7F8083F8018081A4
:1079B0008160808380E060E042E0A9DFE1EEF0E0FA
:1079C00080818E7F8083E2EEF0E080818160808321
:1079D000808188608083F70180818E7F8083F801B9
:1079E0008081806180831F910F91FF90EF900895B7
:1079F000E7EDF0E08081816080838AE482BF81E0EE
:107A00008093B701B6CFE8EDF0E080818E7F808370
:107A10001092E20008951092DA001092E1000895A9
:107A20001F920F920FB60F9211242F933F934F93F3
:107A30005F936F937F938F939F93AF93BF93EF93D6
:107A4000FF938091DA0080FF1BC08091D80080FFF7
:107A500017C08091DA008E7F8093DA008091D90080
:107A600080FF0BC080E189BD82E189BD09B400FEC1
:107A7000FDCF81E08EBB3BD203C019BC1EBA37D20A
:107A80008091E10080FF17C08091E20080FF13C069
:107A90008091E2008E7F8093E2008091E20080611D
:107AA0008093E2008091D80080628093D80019BC56
:107AB00085E08EBB1CD28091E10084FF2CC08091B8
:107AC000E20084FF28C080E189BD82E189BD09B45C
:107AD00000FEFDCF8091D8008F7D8093D8008091EB
:107AE000E1008F7E8093E1008091E2008F7E8093A1
:107AF000E2008091E20081608093E2008091B60113
:107B0000882331F48091E30087FD02C081E001C049
:107B100084E08EBBECD18091E10083FF21C0809195
:107B2000E20083FF1DC08091E100877F8093E10028
:107B300082E08EBB1092B6018091E1008E7F80932F
:107B4000E1008091E2008E7F8093E2008091E2006C
:107B500080618093E20080E060E042E0D8DEC7D13F
:107B6000FF91EF91BF91AF919F918F917F916F9115
:107B70005F914F913F912F910F900FBE0F901F90EB
:107B800018959C014091BE015091BF0146175707BF
:107B900018F4F90190E044C06115710511F0AB01D2
:107BA000F8CF8091E8008E778093E80040E050E0C5
:107BB000F0CF8EB3882309F444C0853009F443C064
:107BC0008091E80083FF02C081E008958091E80081
:107BD00082FD31C08091E80080FF22C08091F300D7
:107BE0009091F200782F60E0292F30E0262B372B80
:107BF00007C081918093F100415050402F5F3F4F6B
:107C00004115510519F02830310598F390E02830DE
:107C1000310509F491E08091E8008E778093E800C7
:107C20004115510531F6992321F605C08EB38823FD
:107C300041F0853041F08091E80082FFF7CF80E08D
:107C4000089582E0089583E008959C01611571050F
:107C500029F48091E8008B778093E800F90126C031
:107C60008EB3882391F1853091F18091E80083FFF4
:107C700002C081E008958091E80082FFF1CF06C044
:107C80008091F10081936150704059F02091F30090
:107C90008091F200322F20E090E0822B932B892BF1
:107CA00079F78091E8008B778093E8006115710582
:107CB000B9F605C08EB3882341F0853041F080913C
:107CC000E80080FFF7CF80E0089582E0089583E028
:107CD00008950F931F93DF93CF9300D0CDB7DEB7F6
:107CE000E8EBF1E08091F100819381E0E03CF8075E
:107CF000C9F708DD8091E80083FFE4C08091B801F6
:107D00009091B901953009F46DC0963040F49130EE
:107D100081F1913070F0933009F0D4C02AC09830CE
:107D200009F4A3C0993009F4B2C0963009F0CAC072
:107D30007CC0803809F4C6C0823809F0C3C0809185
:107D4000BC0187708093E9008091EB001092E900FC
:107D50002091E800277F2093E80090E025E09695A9
:107D600087952A95E1F781708093F1001092F100D8
:107D700087C0882319F0823009F0A4C08F71823047
:107D800009F0A0C08091BA01882331F52091BC018F
:107D9000277009F497C02093E9008091EB0080FFE1
:107DA0001BC0933021F48091EB00806213C080915E
:107DB000EB0080618093EB0081E090E002C0880FCF
:107DC000991F2A95E2F78093EA001092EA008091C9
:107DD000EB0088608093EB001092E9008091E8004E
:107DE000877F51C0882309F06DC01091BA011F77B9
:107DF0000FB7F8948091E800877F8093E8009ADDC0
:107E00008091E80080FFFCCF8091E3008078812B97
:107E10008093E30080688093E300112311F482E0F3
:107E200001C083E08EBB0FBF4DC08058823008F088
:107E300049C08091BA019091BB016091BC01AE0133
:107E40004F5F5F4F36DDBC01009709F43BC0809166
:107E5000E800877F8093E80089819A8192DE809193
:107E6000E8008B778093E8002DC0803859F5809129
:107E7000E800877F8093E8008091B6018093F1004D
:107E80008091E8008E778093E80054DD1BC0882342
:107E9000C9F49091BA019230A8F48091E800877FEC
:107EA0008093E8009093B60145DD8091B601882368
:107EB00031F48091E30087FD02C081E001C084E0DD
:107EC0008EBB50DC8091E80083FF0AC08091EB00FC
:107ED00080628093EB008091E800877F8093E800C8
:107EE0000F900F90CF91DF911F910F9108950895FA
:107EF0001F938EB3882361F01091E9001092E9007E
:107F00008091E80083FF01C0E4DE17701093E90060
:087F10001F910895F894FFCFC2
:107F18004341544552494E4100E803777700080031
:107F280000000000000801120110010200000841D1
:107F380023360001000201000109023E000201008F
:107F480080FA090400000102020100052400100162
:107F5800042402040524060001070582030800FF23
:107F680009040100020A00000007050402100001CC
:107F7800070583021000010403090422034100726B
:107F8800006400750069006E006F0020004C0065F9
:107F9800006F006E006100720064006F000000183E
:107FA80003410072006400750069006E006F0020D4
:0A7FB800004C004C004300000000E4
:040000030000700089
:00000001FF
