:103800000C94341C0C944F1C0C944F1C0C944F1CA7
:103810000C944F1C0C944F1C0C944F1C0C944F1C7C
:103820000C944F1C0C944F1C0C944F1C0C944F1C6C
:103830000C944F1C0C944F1C0C944F1C0C944F1C5C
:103840000C944F1C0C944F1C0C944F1C0C944F1C4C
:103850000C944F1C0C944F1C0C944F1C0C944F1C3C
:103860000C944F1C0C944F1C11241FBECFEFD4E0BE
:10387000DEBFCDBF11E0A0E0B1E0EAE3FEE302C0AD
:1038800005900D92A230B107D9F712E0A2E0B1E0A5
:1038900001C01D92AC30B107E1F70C948D1C0C9463
:1038A000001C8091C0008823E4F78091C60099270E
:1038B00087FD90950895982F8091C00085FFFCCFDB
:1038C0009093C60008950E94511C803209F008951B
:1038D00084E10E945B1C80E10E945B1C0895CF93F1
:1038E000C82F0E94511C803249F484E10E945B1C65
:1038F0008C2F0E945B1C80E10E945B1CCF9108957D
:10390000282F90E007C08091C0008823E4F78091C1
:10391000C6009F5F9217B8F30895CFEFD4E0DEBFE3
:10392000CDBF000022982A9AE0E0F0E084918F3F1A
:1039300011F01A9904C283E38093C4001092C50069
:1039400088E18093C10086E08093C200259A2D987B
:103950000E94511C803379F1813381F18F3F09F44A
:103960004EC0803409F45AC0813409F460C08234F6
:1039700009F46FC0853409F472C08035E1F08135F7
:10398000D1F08235C1F0853509F46DC0863509F472
:1039900075C0843609F486C0843709F4DAC08537E7
:1039A00009F435C18637A1F680E00E946F1C0E94A1
:1039B000511C803389F60E94631CCACF0E94511C9F
:1039C000C82F803229F684E10E945B1C81E40E94AA
:1039D0005B1C86E50E945B1C82E50E945B1C8C2FB1
:1039E0000E945B1C89E40E945B1C83E50E945B1CB7
:1039F00080E50E945B1C80E10E945B1CA9CF0E94B5
:103A0000511C893609F4A3C1863709F0A1CF82E39E
:103A10000E945B1C8AE00E945B1C9ACF0E94511C92
:103A2000863848F20E94511C0E94631C91CF0E946C
:103A3000511C803809F49FC1813809F4A0C1823833
:103A400009F4A1C1883909F0AFCF83E00E946F1C4F
:103A5000AECF84E10E94801C0E94631C79CF85E078
:103A60000E94801CF9CF0E94511C809305010E9486
:103A7000511C809306010E94631C6ACF0E94511C56
:103A8000182F0E94511C0E94511CC82F0E94511CCB
:103A9000103309F089CFCC2309F0D7C08EE10E9402
:103AA0006F1C85CF0E94511C809308020E94511CFC
:103AB0008093070280910B028E7F80930B020E94FD
:103AC000511C853409F4B5C000E010E08091070274
:103AD000909108021816190670F4C7E0D1E00E9410
:103AE000511C89930F5F1F4F80910702909108022C
:103AF00008171907A0F30E94511C803209F028CF43
:103B000080910B0280FFA8C000E010E02091070226
:103B10003091080212161306C0F4E0910501F091ED
:103B20000601A7E0B1E0F999FECFF2BDE1BD8D91AC
:103B300080BDFA9AF99A31960F5F1F4F021713074B
:103B400090F3F0930601E093050184E10E945B1C71
:103B500052CF0E94511C809308020E94511C8093F6
:103B600007020E94511C853409F469C080910B0240
:103B70008E7F80930B028091050190910601880F42
:103B8000991F90930601809305010E94511C803279
:103B900009F0DECE84E10E945B1C00E010E0209181
:103BA0000702309108021216130608F024CFE091A4
:103BB0000501F091060180910B0280FF1FC0F99969
:103BC000FECFF2BDE1BDF89A80B50E945B1CE0918A
:103BD0000501F09106013196F0930601E09305018D
:103BE00020910702309108020F5F1F4F0217130741
:103BF00008F001CF80910B0280FDE1CF869580FF18
:103C0000C6C03196F0930601E0930501EDCF0E9406
:103C1000511C803209F09CCE84E10E945B1C8EE135
:103C20000E945B1C84E90E945B1C86E00E945B1C76
:103C3000E2CE80910B02816080930B0245CF809190
:103C40000B02816080930B02A0CFC13009F46FC0DA
:103C500086E00E946F1CABCE8091060187FD6BC091
:103C600010920A028091050190910601880F991F18
:103C700090930601809305018091070280FF09C09F
:103C80008091070290910802019690930802809318
:103C90000702F894F999FECF1127E0910501F09100
:103CA0000601C7E0D1E08091070290910802103030
:103CB00091F40091570001700130D9F303E00093B3
:103CC0005700E8950091570001700130D9F301E1E8
:103CD00000935700E89509901990009157000170E2
:103CE0000130D9F301E000935700E89513951034A3
:103CF00098F011270091570001700130D9F305E0C9
:103D000000935700E8950091570001700130D9F3F6
:103D100001E100935700E8953296029709F0C7CF6A
:103D2000103011F00296E5CF112484E10FCF84E921
:103D30000E946F1C3CCE81E080930A0293CF2598AD
:103D40002D9AE0910201F09103010995F4CD80E5EF
:103D50000E945B1C8FE40E945B1C80E50E945B1C40
:103D60008DE20E945B1C81E30E945B1C86E30E9443
:103D70005B1C88E34DCE82E00E946F1C18CE81E070
:103D80000E946F1C14CE8FE00E946F1C10CE849195
:103D90000E945B1C2091070230910802E09105010E
:103DA000F09106012ECF1F93CF930E94511CC82F74
:103DB0000E945B1C0E94511C182F0E945B1CC13684
:103DC0002CF0C75511363CF0175508C0C033D4F35A
:103DD000C0531136CCF710330CF01053C295C07F8E
:103DE000C10F8C2F992787FD9095CF911F91089532
:103DF000CF93282F992787FD9095807F9070959578
:103E000087959595879595958795959587958A300A
:103E10003CF0895AC22FCF70CA303CF0C95A06C054
:103E2000805DC22FCF70CA30CCF7C05D0E945B1C92
:0A3E30008C2F0E945B1CCF910895B7
:023E3A00800006
:0400000300003800C1
:00000001FF
