:103E000011248FE594E09EBF8DBFC59ABD98B59BE8
:103E100007C0C59884B714BE81FFDBD08EE002C016
:103E2000C59880E0C2D082E08BB988E18AB986E883
:103E300080BD80E189B9CC24DD24AA24A394A5E027
:103E40009A2EF1E1BF2EAAD0813461F4A7D0082FB9
:103E5000B0D0023811F0013811F484E001C083E0E1
:103E600099D08AC0823411F484E103C0853419F4F6
:103E700085E0A7D081C0853579F490D0E82EFF2465
:103E80008DD0082F10E0102F00270E291F29000FBA
:103E9000111F8FD0680170C0863521F484E091D065
:103EA00080E0DECF843609F042C078D077D0082F8A
:103EB00075D080E0C81688E3D80620F483E0F601C8
:103EC00087BFE895C0E0D1E069D089930C17E1F78E
:103ED000F0E0CF16F8E3DF0620F083E0F60187BFBD
:103EE000E89567D007B600FCFDCFA601A0E0B1E0E1
:103EF0002C9130E011968C91119790E0982F8827A3
:103F0000822B932B1296FA010C01A7BEE89511247F
:103F10004E5F5F4FF1E0A038BF0751F7F60197BE43
:103F2000E89507B600FCFDCFB7BEE89525C08437FD
:103F3000B1F434D033D0F82E31D03BD0F601EF2C91
:103F40008F010F5F1F4F849125D0EA94F801C1F7CC
:103F50000894C11CD11CFA94CF0CD11C0DC085371C
:103F600031F427D08EE116D084E914D078CF813592
:103F700011F488E01AD01DD080E10CD064CF20EA83
:103F80003FE004C0F9013197F1F7019718161906BF
:103F9000CCF308955D9BFECF8CB908955F9BFECF57
:103FA0005C9901C0A8958CB1089598E191BD81BD3F
:103FB0000895F4DF803219F088E0F7DFFFCF84E165
:103FC000E9CF1F93182FEADF1150E9F7F2DF1F91B5
:0C3FD000089580E0EADFEE27FF27099447
:023FFE000404B9
:0400000300003E00BB
:00000001FF
