:10FC00000F92CDB7DEB7112484B714BE982F9D7024
:10FC100009F0FCD082E08093C00088E18093C100AD
:10FC200086E08093C20085E18093C4008EE0D8D046
:10FC30004424552413E0B12EAA24A394B5E09B2EAE
:10FC4000A1E18A2EC1D0813479F4BED08983CED08F
:10FC50008981823811F482E005C0813811F486E090
:10FC600001C083E0AAD0A6C0823411F484E103C0AD
:10FC7000853419F485E0C2D09DC0853561F4A4D0E7
:10FC8000082F10E0A1D090E0582E4424402A512A99
:10FC9000440C551C8EC0863521F484E0AFD080E042
:10FCA000E1CF843609F054C08FD090E0182F0027A0
:10FCB0008BD090E0082B192B87D0782E7801C12C9F
:10FCC00061E0D62E81D0F60181936F010894E1089E
:10FCD000F108E114F104B1F789D0F72DF53499F466
:10FCE0007201C12C51E0D52E0AC0C7010894E11C55
:10FCF000F11CF60161916F0197D001501040011580
:10FD0000110599F757C0F201B7BEE89507B600FC98
:10FD1000FDCFF201A0E0B1E02C9130E011968C9182
:10FD2000119790E0982F8827822B932B12960C0125
:10FD3000A7BEE895112432960250104069F7F201EF
:10FD400097BEE89507B600FCFDCF87BEE89532C0A8
:10FD5000843711F539D090E0182F002735D090E086
:10FD6000082B192B31D0898341D08981853459F4EE
:10FD70007201C7010894E11CF11C4ED01ED0015045
:10FD80001040B9F717C07201F70185917F0115D0B6
:10FD900001501040C9F70EC0853739F427D08EE1E5
:10FDA0000CD086E90AD08AE05DCF813511F488E075
:10FDB00017D01CD080E101D045CF9091C00095FFB5
:10FDC000FCCF8093C60008958091C00087FFFCCFD0
:10FDD0008091C00084FD01C0A8958091C60008955F
:10FDE000E0E6F0E098E1908380830895EDDF8032D3
:10FDF00019F088E0F5DFFFCF84E1DFCF1F93182FE4
:10FE0000E3DF1150E9F7F2DF1F910895282E80E01B
:10FE1000E7DFE0E0FF270994F999FECF92BD81BDAD
:10FE2000F89A992780B50895262FF999FECF1FBA21
:10FE300092BD81BD20BD0FB6F894FA9AF99A0FBE13
:04FE4000019608958A
:02FFFE000206F9
:040000030000FC00FD
:00000001FF
